{"abi":[{"type":"constructor","inputs":[{"name":"_token","type":"address","internalType":"address"}],"stateMutability":"nonpayable"},{"type":"function","name":"BET_AMOUNT","inputs":[],"outputs":[{"name":"","type":"uint256","internalType":"uint256"}],"stateMutability":"view"},{"type":"function","name":"REVEAL_WINDOW","inputs":[],"outputs":[{"name":"","type":"uint256","internalType":"uint256"}],"stateMutability":"view"},{"type":"function","name":"WIN_AMOUNT","inputs":[],"outputs":[{"name":"","type":"uint256","internalType":"uint256"}],"stateMutability":"view"},{"type":"function","name":"WIN_MODULO","inputs":[],"outputs":[{"name":"","type":"uint256","internalType":"uint256"}],"stateMutability":"view"},{"type":"function","name":"checkWin","inputs":[{"name":"secret","type":"bytes32","internalType":"bytes32"},{"name":"blockHash","type":"bytes32","internalType":"bytes32"}],"outputs":[{"name":"","type":"bool","internalType":"bool"}],"stateMutability":"pure"},{"type":"function","name":"click","inputs":[{"name":"dataHash","type":"bytes32","internalType":"bytes32"}],"outputs":[],"stateMutability":"nonpayable"},{"type":"function","name":"commitments","inputs":[{"name":"","type":"address","internalType":"address"}],"outputs":[{"name":"dataHash","type":"bytes32","internalType":"bytes32"},{"name":"commitBlock","type":"uint256","internalType":"uint256"},{"name":"claimed","type":"bool","internalType":"bool"}],"stateMutability":"view"},{"type":"function","name":"computeHash","inputs":[{"name":"secret","type":"bytes32","internalType":"bytes32"},{"name":"salt","type":"bytes32","internalType":"bytes32"}],"outputs":[{"name":"","type":"bytes32","internalType":"bytes32"}],"stateMutability":"pure"},{"type":"function","name":"forfeit","inputs":[],"outputs":[],"stateMutability":"nonpayable"},{"type":"function","name":"getBet","inputs":[{"name":"player","type":"address","internalType":"address"}],"outputs":[{"name":"dataHash","type":"bytes32","internalType":"bytes32"},{"name":"commitBlock","type":"uint256","internalType":"uint256"},{"name":"claimed","type":"bool","internalType":"bool"},{"name":"blocksLeft","type":"uint256","internalType":"uint256"}],"stateMutability":"view"},{"type":"function","name":"houseBalance","inputs":[],"outputs":[{"name":"","type":"uint256","internalType":"uint256"}],"stateMutability":"view"},{"type":"function","name":"reveal","inputs":[{"name":"secret","type":"bytes32","internalType":"bytes32"},{"name":"salt","type":"bytes32","internalType":"bytes32"}],"outputs":[],"stateMutability":"nonpayable"},{"type":"function","name":"token","inputs":[],"outputs":[{"name":"","type":"address","internalType":"contract IERC20"}],"stateMutability":"view"},{"type":"function","name":"totalBetAmount","inputs":[],"outputs":[{"name":"","type":"uint256","internalType":"uint256"}],"stateMutability":"view"},{"type":"function","name":"totalBets","inputs":[],"outputs":[{"name":"","type":"uint256","internalType":"uint256"}],"stateMutability":"view"},{"type":"function","name":"totalPaidOut","inputs":[],"outputs":[{"name":"","type":"uint256","internalType":"uint256"}],"stateMutability":"view"},{"type":"function","name":"totalWins","inputs":[],"outputs":[{"name":"","type":"uint256","internalType":"uint256"}],"stateMutability":"view"},{"type":"event","name":"Clicked","inputs":[{"name":"player","type":"address","indexed":true,"internalType":"address"},{"name":"dataHash","type":"bytes32","indexed":false,"internalType":"bytes32"},{"name":"commitBlock","type":"uint256","indexed":false,"internalType":"uint256"}],"anonymous":false},{"type":"event","name":"Forfeited","inputs":[{"name":"player","type":"address","indexed":true,"internalType":"address"},{"name":"commitBlock","type":"uint256","indexed":false,"internalType":"uint256"}],"anonymous":false},{"type":"event","name":"HouseFunded","inputs":[{"name":"funder","type":"address","indexed":true,"internalType":"address"},{"name":"amount","type":"uint256","indexed":false,"internalType":"uint256"}],"anonymous":false},{"type":"event","name":"Won","inputs":[{"name":"player","type":"address","indexed":true,"internalType":"address"},{"name":"secret","type":"bytes32","indexed":false,"internalType":"bytes32"},{"name":"salt","type":"bytes32","indexed":false,"internalType":"bytes32"},{"name":"payout","type":"uint256","indexed":false,"internalType":"uint256"}],"anonymous":false},{"type":"error","name":"ReentrancyGuardReentrantCall","inputs":[]},{"type":"error","name":"SafeERC20FailedOperation","inputs":[{"name":"token","type":"address","internalType":"address"}]}],"bytecode":{"object":"0x60a060405234801561000f575f5ffd5b50604051611c09380380611c098339818101604052810190610031919061018d565b600161004f6100446100fd60201b60201c565b61012660201b60201c565b5f01819055505f73ffffffffffffffffffffffffffffffffffffffff168173ffffffffffffffffffffffffffffffffffffffff16036100c3576040517f08c379a00000000000000000000000000000000000000000000000000000000081526004016100ba90610212565b60405180910390fd5b8073ffffffffffffffffffffffffffffffffffffffff1660808173ffffffffffffffffffffffffffffffffffffffff168152505050610230565b5f7f9b779b17422d0df92223018b32b4d1fa46e071723d6817e2486d003becc55f005f1b905090565b5f819050919050565b5f5ffd5b5f73ffffffffffffffffffffffffffffffffffffffff82169050919050565b5f61015c82610133565b9050919050565b61016c81610152565b8114610176575f5ffd5b50565b5f8151905061018781610163565b92915050565b5f602082840312156101a2576101a161012f565b5b5f6101af84828501610179565b91505092915050565b5f82825260208201905092915050565b7f496e76616c696420746f6b656e000000000000000000000000000000000000005f82015250565b5f6101fc600d836101b8565b9150610207826101c8565b602082019050919050565b5f6020820190508181035f830152610229816101f0565b9050919050565b6080516119a56102645f395f81816104dc015281816105cf0152818161077f01528181610ae30152610dc901526119a55ff3fe608060405234801561000f575f5ffd5b5060043610610109575f3560e01c806367084eb3116100a0578063e8fcf7231161006f578063e8fcf72314610297578063f3d86e4a146102c9578063f7566b49146102d3578063fc0c546a14610306578063fc334e8c1461032457610109565b806367084eb31461021f578063777ac3491461023d578063b870fbe31461025b578063befa1e2f1461027957610109565b80633164ee53116100dc5780633164ee531461019757806339f22e77146101b35780633f9326af146101e3578063613f45941461020157610109565b80630297441c1461010d57806306c9e7491461013d5780631357e1dc1461015b57806317e931cf14610179575b5f5ffd5b610127600480360381019061012291906110f6565b610340565b604051610134919061114e565b60405180910390f35b610145610387565b604051610152919061117f565b60405180910390f35b610163610395565b604051610170919061117f565b60405180910390f35b61018161039b565b60405161018e919061117f565b60405180910390f35b6101b160048036038101906101ac9190611198565b6103a1565b005b6101cd60048036038101906101c891906110f6565b610736565b6040516101da91906111d2565b60405180910390f35b6101eb610768565b6040516101f8919061117f565b60405180910390f35b610209610776565b604051610216919061117f565b60405180910390f35b61022761077c565b604051610234919061117f565b60405180910390f35b61024561081a565b604051610252919061117f565b60405180910390f35b610263610820565b604051610270919061117f565b60405180910390f35b610281610825565b60405161028e919061117f565b60405180910390f35b6102b160048036038101906102ac9190611245565b61082b565b6040516102c093929190611270565b60405180910390f35b6102d161085c565b005b6102ed60048036038101906102e89190611245565b6109f9565b6040516102fd94939291906112a5565b60405180910390f35b61030e610ae1565b60405161031b9190611343565b60405180910390f35b61033e600480360381019061033991906110f6565b610b05565b005b5f5f838360405160200161035592919061137c565b6040516020818303038152906040528051906020012090505f600a825f1c61037d91906113d4565b1491505092915050565b69130ee8e717904440000081565b60045481565b61010081565b6103a9610e79565b5f5f1b81036103ed576040517f08c379a00000000000000000000000000000000000000000000000000000000081526004016103e49061145e565b60405180910390fd5b5f5f5f3373ffffffffffffffffffffffffffffffffffffffff1673ffffffffffffffffffffffffffffffffffffffff1681526020019081526020015f206040518060600160405290815f820154815260200160018201548152602001600282015f9054906101000a900460ff16151515158152505090505f81602001511480610477575080604001515b806104855750806020015143115b6104c4576040517f08c379a00000000000000000000000000000000000000000000000000000000081526004016104bb906114c6565b60405180910390fd5b69130ee8e717904440000069021e19e0c9bab24000007f000000000000000000000000000000000000000000000000000000000000000073ffffffffffffffffffffffffffffffffffffffff166370a08231306040518263ffffffff1660e01b815260040161053391906114f3565b602060405180830381865afa15801561054e573d5f5f3e3d5ffd5b505050506040513d601f19601f820116820180604052508101906105729190611536565b61057c919061158e565b10156105bd576040517f08c379a00000000000000000000000000000000000000000000000000000000081526004016105b49061160b565b60405180910390fd5b610614333069021e19e0c9bab24000007f000000000000000000000000000000000000000000000000000000000000000073ffffffffffffffffffffffffffffffffffffffff16610e9b909392919063ffffffff16565b60405180606001604052808381526020014381526020015f15158152505f5f3373ffffffffffffffffffffffffffffffffffffffff1673ffffffffffffffffffffffffffffffffffffffff1681526020019081526020015f205f820151815f0155602082015181600101556040820151816002015f6101000a81548160ff02191690831515021790555090505060015f8154809291906106b390611629565b919050555069021e19e0c9bab240000060035f8282546106d3919061158e565b925050819055503373ffffffffffffffffffffffffffffffffffffffff167f044db825c7f0a321ac0694b3a98beb3828771bed85d2c31967a8cefd76b3e9538343604051610722929190611670565b60405180910390a250610733610ef0565b50565b5f828260405160200161074a92919061137c565b60405160208183030381529060405280519060200120905092915050565b69021e19e0c9bab240000081565b60035481565b5f7f000000000000000000000000000000000000000000000000000000000000000073ffffffffffffffffffffffffffffffffffffffff166370a08231306040518263ffffffff1660e01b81526004016107d691906114f3565b602060405180830381865afa1580156107f1573d5f5f3e3d5ffd5b505050506040513d601f19601f820116820180604052508101906108159190611536565b905090565b60025481565b600a81565b60015481565b5f602052805f5260405f205f91509050805f015490806001015490806002015f9054906101000a900460ff16905083565b610864610e79565b5f5f5f3373ffffffffffffffffffffffffffffffffffffffff1673ffffffffffffffffffffffffffffffffffffffff1681526020019081526020015f2090505f8160010154036108e9576040517f08c379a00000000000000000000000000000000000000000000000000000000081526004016108e0906116e1565b60405180910390fd5b806002015f9054906101000a900460ff161561093a576040517f08c379a000000000000000000000000000000000000000000000000000000000815260040161093190611749565b60405180910390fd5b80600101544311610980576040517f08c379a0000000000000000000000000000000000000000000000000000000008152600401610977906117b1565b60405180910390fd5b6001816002015f6101000a81548160ff0219169083151502179055503373ffffffffffffffffffffffffffffffffffffffff167f5b1c616c572bf4d007644e7a85cb76c1ad8ad649c2587712bc80495fe76343a682600101546040516109e6919061117f565b60405180910390a2506109f7610ef0565b565b5f5f5f5f5f5f5f8773ffffffffffffffffffffffffffffffffffffffff1673ffffffffffffffffffffffffffffffffffffffff1681526020019081526020015f206040518060600160405290815f820154815260200160018201548152602001600282015f9054906101000a900460ff16151515158152505090505f5f90505f826020015114158015610a8e57508160400151155b15610ac1575f6101008360200151610aa6919061158e565b905080431015610abf574381610abc91906117cf565b91505b505b815f01518260200151836040015183955095509550955050509193509193565b7f000000000000000000000000000000000000000000000000000000000000000081565b610b0d610e79565b5f5f5f3373ffffffffffffffffffffffffffffffffffffffff1673ffffffffffffffffffffffffffffffffffffffff1681526020019081526020015f2090505f816001015403610b92576040517f08c379a0000000000000000000000000000000000000000000000000000000008152600401610b89906116e1565b60405180910390fd5b806002015f9054906101000a900460ff1615610be3576040517f08c379a0000000000000000000000000000000000000000000000000000000008152600401610bda90611749565b60405180910390fd5b80600101544311610c29576040517f08c379a0000000000000000000000000000000000000000000000000000000008152600401610c20906117b1565b60405180910390fd5b5f81600101544090505f5f1b8103610c76576040517f08c379a0000000000000000000000000000000000000000000000000000000008152600401610c6d9061184c565b60405180910390fd5b5f8484604051602001610c8a92919061137c565b604051602081830303815290604052805190602001209050825f01548114610ce7576040517f08c379a0000000000000000000000000000000000000000000000000000000008152600401610cde906118b4565b60405180910390fd5b5f8583604051602001610cfb92919061137c565b6040516020818303038152906040528051906020012090505f600a825f1c610d2391906113d4565b14610d63576040517f08c379a0000000000000000000000000000000000000000000000000000000008152600401610d5a9061191c565b60405180910390fd5b6001846002015f6101000a81548160ff02191690831515021790555060025f815480929190610d9190611629565b919050555069130ee8e717904440000060045f828254610db1919061158e565b92505081905550610e0d3369130ee8e71790444000007f000000000000000000000000000000000000000000000000000000000000000073ffffffffffffffffffffffffffffffffffffffff16610f0a9092919063ffffffff16565b3373ffffffffffffffffffffffffffffffffffffffff167f53d0483b088ab7bcd40b5372403f77e038269c1b93ab728c14404faeaa6344fb878769130ee8e7179044400000604051610e619392919061193a565b60405180910390a250505050610e75610ef0565b5050565b610e81610f5d565b6002610e93610e8e610f9e565b610fc7565b5f0181905550565b610ea9848484846001610fd0565b610eea57836040517f5274afe7000000000000000000000000000000000000000000000000000000008152600401610ee191906114f3565b60405180910390fd5b50505050565b6001610f02610efd610f9e565b610fc7565b5f0181905550565b610f178383836001611041565b610f5857826040517f5274afe7000000000000000000000000000000000000000000000000000000008152600401610f4f91906114f3565b60405180910390fd5b505050565b610f656110a3565b15610f9c576040517f3ee5aeb500000000000000000000000000000000000000000000000000000000815260040160405180910390fd5b565b5f7f9b779b17422d0df92223018b32b4d1fa46e071723d6817e2486d003becc55f005f1b905090565b5f819050919050565b5f5f6323b872dd60e01b9050604051815f525f1960601c87166004525f1960601c86166024528460445260205f60645f5f8c5af1925060015f5114831661102e578383151615611022573d5f823e3d81fd5b5f883b113d1516831692505b806040525f606052505095945050505050565b5f5f63a9059cbb60e01b9050604051815f525f1960601c86166004528460245260205f60445f5f8b5af1925060015f51148316611095578383151615611089573d5f823e3d81fd5b5f873b113d1516831692505b806040525050949350505050565b5f60026110b66110b1610f9e565b610fc7565b5f015414905090565b5f5ffd5b5f819050919050565b6110d5816110c3565b81146110df575f5ffd5b50565b5f813590506110f0816110cc565b92915050565b5f5f6040838503121561110c5761110b6110bf565b5b5f611119858286016110e2565b925050602061112a858286016110e2565b9150509250929050565b5f8115159050919050565b61114881611134565b82525050565b5f6020820190506111615f83018461113f565b92915050565b5f819050919050565b61117981611167565b82525050565b5f6020820190506111925f830184611170565b92915050565b5f602082840312156111ad576111ac6110bf565b5b5f6111ba848285016110e2565b91505092915050565b6111cc816110c3565b82525050565b5f6020820190506111e55f8301846111c3565b92915050565b5f73ffffffffffffffffffffffffffffffffffffffff82169050919050565b5f611214826111eb565b9050919050565b6112248161120a565b811461122e575f5ffd5b50565b5f8135905061123f8161121b565b92915050565b5f6020828403121561125a576112596110bf565b5b5f61126784828501611231565b91505092915050565b5f6060820190506112835f8301866111c3565b6112906020830185611170565b61129d604083018461113f565b949350505050565b5f6080820190506112b85f8301876111c3565b6112c56020830186611170565b6112d2604083018561113f565b6112df6060830184611170565b95945050505050565b5f819050919050565b5f61130b611306611301846111eb565b6112e8565b6111eb565b9050919050565b5f61131c826112f1565b9050919050565b5f61132d82611312565b9050919050565b61133d81611323565b82525050565b5f6020820190506113565f830184611334565b92915050565b5f819050919050565b611376611371826110c3565b61135c565b82525050565b5f6113878285611365565b6020820191506113978284611365565b6020820191508190509392505050565b7f4e487b71000000000000000000000000000000000000000000000000000000005f52601260045260245ffd5b5f6113de82611167565b91506113e983611167565b9250826113f9576113f86113a7565b5b828206905092915050565b5f82825260208201905092915050565b7f456d7074792068617368000000000000000000000000000000000000000000005f82015250565b5f611448600a83611404565b915061145382611414565b602082019050919050565b5f6020820190508181035f8301526114758161143c565b9050919050565b7f57616974206f6e6520626c6f636b206265666f72652072652d62657474696e675f82015250565b5f6114b0602083611404565b91506114bb8261147c565b602082019050919050565b5f6020820190508181035f8301526114dd816114a4565b9050919050565b6114ed8161120a565b82525050565b5f6020820190506115065f8301846114e4565b92915050565b61151581611167565b811461151f575f5ffd5b50565b5f815190506115308161150c565b92915050565b5f6020828403121561154b5761154a6110bf565b5b5f61155884828501611522565b91505092915050565b7f4e487b71000000000000000000000000000000000000000000000000000000005f52601160045260245ffd5b5f61159882611167565b91506115a383611167565b92508282019050808211156115bb576115ba611561565b5b92915050565b7f486f75736520756e64657266756e6465640000000000000000000000000000005f82015250565b5f6115f5601183611404565b9150611600826115c1565b602082019050919050565b5f6020820190508181035f830152611622816115e9565b9050919050565b5f61163382611167565b91507fffffffffffffffffffffffffffffffffffffffffffffffffffffffffffffffff820361166557611664611561565b5b600182019050919050565b5f6040820190506116835f8301856111c3565b6116906020830184611170565b9392505050565b7f4e6f2062657420666f756e6400000000000000000000000000000000000000005f82015250565b5f6116cb600c83611404565b91506116d682611697565b602082019050919050565b5f6020820190508181035f8301526116f8816116bf565b9050919050565b7f416c726561647920636c61696d656400000000000000000000000000000000005f82015250565b5f611733600f83611404565b915061173e826116ff565b602082019050919050565b5f6020820190508181035f83015261176081611727565b9050919050565b7f57616974206f6e6520626c6f636b0000000000000000000000000000000000005f82015250565b5f61179b600e83611404565b91506117a682611767565b602082019050919050565b5f6020820190508181035f8301526117c88161178f565b9050919050565b5f6117d982611167565b91506117e483611167565b92508282039050818111156117fc576117fb611561565b5b92915050565b7f426574206578706972656420283e32353620626c6f636b7329000000000000005f82015250565b5f611836601983611404565b915061184182611802565b602082019050919050565b5f6020820190508181035f8301526118638161182a565b9050919050565b7f48617368206d69736d61746368000000000000000000000000000000000000005f82015250565b5f61189e600d83611404565b91506118a98261186a565b602082019050919050565b5f6020820190508181035f8301526118cb81611892565b9050919050565b7f4e6f7420612077696e6e657200000000000000000000000000000000000000005f82015250565b5f611906600c83611404565b9150611911826118d2565b602082019050919050565b5f6020820190508181035f830152611933816118fa565b9050919050565b5f60608201905061194d5f8301866111c3565b61195a60208301856111c3565b6119676040830184611170565b94935050505056fea26469706673582212202e0fc8d024fb19a2131f460ca38d46b314cb6adde99fe2949258318afbdc00a464736f6c63430008210033","linkReferences":{}},"methodIdentifiers":{"BET_AMOUNT()":"3f9326af","REVEAL_WINDOW()":"17e931cf","WIN_AMOUNT()":"06c9e749","WIN_MODULO()":"b870fbe3","checkWin(bytes32,bytes32)":"0297441c","click(bytes32)":"3164ee53","commitments(address)":"e8fcf723","computeHash(bytes32,bytes32)":"39f22e77","forfeit()":"f3d86e4a","getBet(address)":"f7566b49","houseBalance()":"67084eb3","reveal(bytes32,bytes32)":"fc334e8c","token()":"fc0c546a","totalBetAmount()":"613f4594","totalBets()":"befa1e2f","totalPaidOut()":"1357e1dc","totalWins()":"777ac349"},"id":0}